{
  "contractName": "PreventReentrancy",
  "abi": [
    {
      "inputs": [
        {
          "internalType": "address",
          "name": "",
          "type": "address"
        }
      ],
      "name": "balances",
      "outputs": [
        {
          "internalType": "uint256",
          "name": "",
          "type": "uint256"
        }
      ],
      "stateMutability": "view",
      "type": "function"
    },
    {
      "inputs": [
        {
          "internalType": "address",
          "name": "",
          "type": "address"
        }
      ],
      "name": "lastWithdrawalTime",
      "outputs": [
        {
          "internalType": "uint256",
          "name": "",
          "type": "uint256"
        }
      ],
      "stateMutability": "view",
      "type": "function"
    },
    {
      "inputs": [],
      "name": "withdrawalKimit",
      "outputs": [
        {
          "internalType": "uint256",
          "name": "",
          "type": "uint256"
        }
      ],
      "stateMutability": "view",
      "type": "function"
    },
    {
      "inputs": [],
      "name": "depositFunds",
      "outputs": [],
      "stateMutability": "payable",
      "type": "function"
    }
  ],
  "bytecode": "0x608060405260008060006101000a81548160ff021916908315150217905550670de0b6b3a764000060015534801561003657600080fd5b506101fe806100466000396000f3fe60806040526004361061003f5760003560e01c806327e235e3146100445780634de5120e146100a95780639836fab01461010e578063e2c41dbc14610139575b600080fd5b34801561005057600080fd5b506100936004803603602081101561006757600080fd5b81019080803573ffffffffffffffffffffffffffffffffffffffff169060200190929190505050610143565b6040518082815260200191505060405180910390f35b3480156100b557600080fd5b506100f8600480360360208110156100cc57600080fd5b81019080803573ffffffffffffffffffffffffffffffffffffffff16906020019092919050505061015b565b6040518082815260200191505060405180910390f35b34801561011a57600080fd5b50610123610173565b6040518082815260200191505060405180910390f35b610141610179565b005b60036020528060005260406000206000915090505481565b60026020528060005260406000206000915090505481565b60015481565b34600360003373ffffffffffffffffffffffffffffffffffffffff1673ffffffffffffffffffffffffffffffffffffffff1681526020019081526020016000206000828254019250508190555056fea2646970667358221220dc9f12e05e29df146ceee092dc89aa5ebe60bdead4719b4365243a412e332bf064736f6c63430007050033",
  "immutableReferences": {},
  "source": "pragma solidity 0.7.5;\n\ncontract PreventReentrancy{\n\n    bool reEntrancyMutext = false ;\n    uint256 public withdrawalKimit = 1 ether;\n    mapping(address => uint256) public lastWithdrawalTime; \n    mapping(address => uint256) public balances; \n\n    function depositFunds() public payable {\n        balances[msg.sender] += msg.value;\n    }\n}",
  "sourcePath": "/Users/yusuf/Documents/Developer/workspaces/ethereum-projects/mastering-ethereum/reentrancy/contracts/ReentrancyPrevention.sol",
  "compiler": {
    "name": "solc",
    "version": "0.7.5+commit.eb77ed08.Emscripten.clang"
  },
  "schemaVersion": "3.3.2",
  "updatedAt": "2021-02-18T20:59:24.057Z",
  "devdoc": {
    "kind": "dev",
    "methods": {},
    "version": 1
  },
  "userdoc": {
    "kind": "user",
    "methods": {},
    "version": 1
  }
}