{
  "contractName": "PreventReentrancy",
  "abi": [
    {
      "inputs": [
        {
          "internalType": "address",
          "name": "",
          "type": "address"
        }
      ],
      "name": "balances",
      "outputs": [
        {
          "internalType": "uint256",
          "name": "",
          "type": "uint256"
        }
      ],
      "stateMutability": "view",
      "type": "function"
    },
    {
      "inputs": [
        {
          "internalType": "address",
          "name": "",
          "type": "address"
        }
      ],
      "name": "lastWithdrawalTime",
      "outputs": [
        {
          "internalType": "uint256",
          "name": "",
          "type": "uint256"
        }
      ],
      "stateMutability": "view",
      "type": "function"
    },
    {
      "inputs": [],
      "name": "withdrawalLimit",
      "outputs": [
        {
          "internalType": "uint256",
          "name": "",
          "type": "uint256"
        }
      ],
      "stateMutability": "view",
      "type": "function"
    },
    {
      "inputs": [],
      "name": "depositFunds",
      "outputs": [],
      "stateMutability": "payable",
      "type": "function"
    },
    {
      "inputs": [
        {
          "internalType": "uint256",
          "name": "_weiToWithdraw",
          "type": "uint256"
        }
      ],
      "name": "withdrawFunds",
      "outputs": [],
      "stateMutability": "nonpayable",
      "type": "function"
    }
  ],
  "bytecode": "0x608060405260008060006101000a81548160ff021916908315150217905550670de0b6b3a764000060015534801561003657600080fd5b50610417806100466000396000f3fe60806040526004361061004a5760003560e01c8063155dd5ee1461004f57806327e235e31461008a5780634de5120e146100ef5780637ddfe78d14610154578063e2c41dbc1461017f575b600080fd5b34801561005b57600080fd5b506100886004803603602081101561007257600080fd5b8101908080359060200190929190505050610189565b005b34801561009657600080fd5b506100d9600480360360208110156100ad57600080fd5b81019080803573ffffffffffffffffffffffffffffffffffffffff16906020019092919050505061035c565b6040518082815260200191505060405180910390f35b3480156100fb57600080fd5b5061013e6004803603602081101561011257600080fd5b81019080803573ffffffffffffffffffffffffffffffffffffffff169060200190929190505050610374565b6040518082815260200191505060405180910390f35b34801561016057600080fd5b5061016961038c565b6040518082815260200191505060405180910390f35b610187610392565b005b60008054906101000a900460ff16156101a157600080fd5b80600360003373ffffffffffffffffffffffffffffffffffffffff1673ffffffffffffffffffffffffffffffffffffffff1681526020019081526020016000205410156101ed57600080fd5b6001548111156101fc57600080fd5b62093a80600260003373ffffffffffffffffffffffffffffffffffffffff1673ffffffffffffffffffffffffffffffffffffffff168152602001908152602001600020540142101561024d57600080fd5b80600360003373ffffffffffffffffffffffffffffffffffffffff1673ffffffffffffffffffffffffffffffffffffffff1681526020019081526020016000206000828254039250508190555042600260003373ffffffffffffffffffffffffffffffffffffffff1673ffffffffffffffffffffffffffffffffffffffff1681526020019081526020016000208190555060016000806101000a81548160ff0219169083151502179055503373ffffffffffffffffffffffffffffffffffffffff166108fc829081150290604051600060405180830381858888f1935050505015801561033e573d6000803e3d6000fd5b5060008060006101000a81548160ff02191690831515021790555050565b60036020528060005260406000206000915090505481565b60026020528060005260406000206000915090505481565b60015481565b34600360003373ffffffffffffffffffffffffffffffffffffffff1673ffffffffffffffffffffffffffffffffffffffff1681526020019081526020016000206000828254019250508190555056fea2646970667358221220d4b7608e27696bd9fa85d27ea4a83a2766658694c1bcd44c6d666063e0f3423264736f6c63430007050033",
  "immutableReferences": {},
  "source": "pragma solidity 0.7.5;\n\ncontract PreventReentrancy{\n\n    bool reEntrancyMutext = false ;\n    uint256 public withdrawalLimit = 1 ether;\n    mapping(address => uint256) public lastWithdrawalTime; \n    mapping(address => uint256) public balances; \n\n    function depositFunds() public payable {\n        balances[msg.sender] += msg.value;\n    }\n\n    function withdrawFunds(uint _weiToWithdraw) public {\n        require(!reEntrancyMutext);\n        require(balances[msg.sender] >= _weiToWithdraw);\n\n        require(_weiToWithdraw <= withdrawalLimit);\n\n        require(block.timestamp >= lastWithdrawalTime[msg.sender] + 1 weeks);\n\n        balances[msg.sender] -= _weiToWithdraw;\n        lastWithdrawalTime[msg.sender] = block.timestamp;\n\n        reEntrancyMutext = true;\n        msg.sender.transfer(_weiToWithdraw);\n        reEntrancyMutext = false;\n    }\n}",
  "sourcePath": "/Users/yusuf/Documents/Developer/workspaces/ethereum-projects/mastering-ethereum/reentrancy/contracts/ReentrancyPrevention.sol",
  "compiler": {
    "name": "solc",
    "version": "0.7.5+commit.eb77ed08.Emscripten.clang"
  },
  "schemaVersion": "3.3.2",
  "updatedAt": "2021-02-18T21:08:32.738Z",
  "devdoc": {
    "kind": "dev",
    "methods": {},
    "version": 1
  },
  "userdoc": {
    "kind": "user",
    "methods": {},
    "version": 1
  }
}