{
  "contractName": "TimeLockOverFlow",
  "abi": [
    {
      "inputs": [
        {
          "internalType": "address",
          "name": "",
          "type": "address"
        }
      ],
      "name": "balances",
      "outputs": [
        {
          "internalType": "uint256",
          "name": "",
          "type": "uint256"
        }
      ],
      "stateMutability": "view",
      "type": "function"
    },
    {
      "inputs": [
        {
          "internalType": "address",
          "name": "",
          "type": "address"
        }
      ],
      "name": "lockTime",
      "outputs": [
        {
          "internalType": "uint256",
          "name": "",
          "type": "uint256"
        }
      ],
      "stateMutability": "view",
      "type": "function"
    },
    {
      "inputs": [],
      "name": "deposit",
      "outputs": [],
      "stateMutability": "payable",
      "type": "function"
    },
    {
      "inputs": [
        {
          "internalType": "uint256",
          "name": "_secondsToIncrease",
          "type": "uint256"
        }
      ],
      "name": "increaseLockTime",
      "outputs": [],
      "stateMutability": "nonpayable",
      "type": "function"
    },
    {
      "inputs": [],
      "name": "safeDeposit",
      "outputs": [],
      "stateMutability": "payable",
      "type": "function"
    },
    {
      "inputs": [
        {
          "internalType": "uint256",
          "name": "_secondsToIncrease",
          "type": "uint256"
        }
      ],
      "name": "safeIncreaseLockTime",
      "outputs": [],
      "stateMutability": "nonpayable",
      "type": "function"
    }
  ],
  "bytecode": "0x608060405234801561001057600080fd5b50610581806100206000396000f3fe6080604052600436106100555760003560e01c806327e235e31461005a5780636e47b938146100bf57806379af55e4146100c95780639f98db6214610104578063a4beda631461013f578063d0e30db0146101a4575b600080fd5b34801561006657600080fd5b506100a96004803603602081101561007d57600080fd5b81019080803573ffffffffffffffffffffffffffffffffffffffff1690602001909291905050506101ae565b6040518082815260200191505060405180910390f35b6100c76101c6565b005b3480156100d557600080fd5b50610102600480360360208110156100ec57600080fd5b8101908080359060200190929190505050610375565b005b34801561011057600080fd5b5061013d6004803603602081101561012757600080fd5b81019080803590602001909291905050506103c5565b005b34801561014b57600080fd5b5061018e6004803603602081101561016257600080fd5b81019080803573ffffffffffffffffffffffffffffffffffffffff16906020019092919050505061049c565b6040518082815260200191505060405180910390f35b6101ac6104b4565b005b60006020528060005260406000206000915090505481565b6000803373ffffffffffffffffffffffffffffffffffffffff1673ffffffffffffffffffffffffffffffffffffffff1681526020019081526020016000205473__SafeMath______________________________63771602f79091346040518363ffffffff1660e01b8152600401808381526020018281526020019250505060206040518083038186803b15801561025d57600080fd5b505af4158015610271573d6000803e3d6000fd5b505050506040513d602081101561028757600080fd5b8101908080519060200190929190505050504273__SafeMath______________________________63771602f7909162093a806040518363ffffffff1660e01b8152600401808381526020018281526020019250505060206040518083038186803b1580156102f557600080fd5b505af4158015610309573d6000803e3d6000fd5b505050506040513d602081101561031f57600080fd5b8101908080519060200190929190505050600160003373ffffffffffffffffffffffffffffffffffffffff1673ffffffffffffffffffffffffffffffffffffffff16815260200190815260200160002081905550565b80600160003373ffffffffffffffffffffffffffffffffffffffff1673ffffffffffffffffffffffffffffffffffffffff1681526020019081526020016000206000828254019250508190555050565b600160003373ffffffffffffffffffffffffffffffffffffffff1673ffffffffffffffffffffffffffffffffffffffff1681526020019081526020016000205473__SafeMath______________________________63771602f79091836040518363ffffffff1660e01b8152600401808381526020018281526020019250505060206040518083038186803b15801561045d57600080fd5b505af4158015610471573d6000803e3d6000fd5b505050506040513d602081101561048757600080fd5b81019080805190602001909291905050505050565b60016020528060005260406000206000915090505481565b346000803373ffffffffffffffffffffffffffffffffffffffff1673ffffffffffffffffffffffffffffffffffffffff1681526020019081526020016000206000828254019250508190555062093a804201600160003373ffffffffffffffffffffffffffffffffffffffff1673ffffffffffffffffffffffffffffffffffffffff1681526020019081526020016000208190555056fea264697066735822122072b12eb06415e9c609eac5fa9dcd7b1fc2cc0e92726ab2925163ad5b328c3be464736f6c63430007050033",
  "immutableReferences": {},
  "source": "pragma solidity 0.7.5; \n\nimport {SafeMath} from \"./SafeMath.sol\";\n\n\n\ncontract TimeLockOverFlow {\n    using SafeMath for uint;\n   \n    mapping(address => uint) public balances; \n    mapping(address => uint) public lockTime;\n\n    function deposit() public payable {\n        balances[msg.sender] += msg.value;\n        //\n        lockTime[msg.sender] = block.timestamp + 1 weeks;\n    }\n\n    function increaseLockTime(uint _secondsToIncrease) public {\n        /* \n          vulnerability alert! \n          Attacker can determine the current time and call this function \n          with a value for _secondsToIncrease equal 2 ^ 256 \n          causing an overflow in the users locktTime resetting it to 0\n          then call withdraw to withdraw the money \n        */\n        lockTime[msg.sender] += _secondsToIncrease;\n    }\n\n       /* \n          Prevent Overflow by using add function of SafeMath library\n        */\n    function safeDeposit() public payable {\n        balances[msg.sender].add(msg.value);\n        //\n        lockTime[msg.sender] = block.timestamp.add(1 weeks);\n    }\n      function safeIncreaseLockTime(uint _secondsToIncrease) public {\n     \n        lockTime[msg.sender].add(_secondsToIncrease);\n    }\n}\n\ncontract TokenBalanceUnderFlow {\n\n    mapping(address => uint) balances;\n    uint public totalSupply; \n\n    constructor(uint _intialSupply) {\n      totalSupply = _intialSupply;\n       balances[msg.sender] = _intialSupply;\n    }\n\n    /**\n      Vulnerability ALERT!!\n      The require statement can be bypassed by using an underflow \n      A user with 0 balance can call the function with a _value greater than 0 \n      the subtraction will underflow and result in a value greater than 0, bypassing the require statemet.\n      (balance is a uint256 and value is 0)\n     */\n    function transfer(address _to, uint _value) public returns (bool) {\n        require(balances[msg.sender] - _value >= 0);\n        balances[msg.sender] -= _value;\n        balances[_to] += _value;\n        return true;\n    }\n\n    function balancesOf(address _owner) public view returns(uint balance) {\n        return balances[_owner];\n    }\n}",
  "sourcePath": "/Users/yusuf/Documents/Developer/workspaces/ethereum-projects/mastering-ethereum/reentrancy/contracts/ArithmeticOverAndUnderFlows.sol",
  "compiler": {
    "name": "solc",
    "version": "0.7.5+commit.eb77ed08.Emscripten.clang"
  },
  "schemaVersion": "3.3.2",
  "updatedAt": "2021-02-21T13:20:47.013Z",
  "devdoc": {
    "kind": "dev",
    "methods": {},
    "version": 1
  },
  "userdoc": {
    "kind": "user",
    "methods": {},
    "version": 1
  }
}