{
  "contractName": "TimeLockOverFlow",
  "abi": [
    {
      "inputs": [
        {
          "internalType": "address",
          "name": "",
          "type": "address"
        }
      ],
      "name": "balances",
      "outputs": [
        {
          "internalType": "uint256",
          "name": "",
          "type": "uint256"
        }
      ],
      "stateMutability": "view",
      "type": "function"
    },
    {
      "inputs": [
        {
          "internalType": "address",
          "name": "",
          "type": "address"
        }
      ],
      "name": "lockTime",
      "outputs": [
        {
          "internalType": "uint256",
          "name": "",
          "type": "uint256"
        }
      ],
      "stateMutability": "view",
      "type": "function"
    },
    {
      "inputs": [],
      "name": "deposit",
      "outputs": [],
      "stateMutability": "payable",
      "type": "function"
    },
    {
      "inputs": [
        {
          "internalType": "uint256",
          "name": "_secondsToIncrease",
          "type": "uint256"
        }
      ],
      "name": "increaseLockTime",
      "outputs": [],
      "stateMutability": "nonpayable",
      "type": "function"
    }
  ],
  "bytecode": "0x608060405234801561001057600080fd5b506102a0806100206000396000f3fe60806040526004361061003f5760003560e01c806327e235e31461004457806379af55e4146100a9578063a4beda63146100e4578063d0e30db014610149575b600080fd5b34801561005057600080fd5b506100936004803603602081101561006757600080fd5b81019080803573ffffffffffffffffffffffffffffffffffffffff169060200190929190505050610153565b6040518082815260200191505060405180910390f35b3480156100b557600080fd5b506100e2600480360360208110156100cc57600080fd5b810190808035906020019092919050505061016b565b005b3480156100f057600080fd5b506101336004803603602081101561010757600080fd5b81019080803573ffffffffffffffffffffffffffffffffffffffff1690602001909291905050506101bb565b6040518082815260200191505060405180910390f35b6101516101d3565b005b60006020528060005260406000206000915090505481565b80600160003373ffffffffffffffffffffffffffffffffffffffff1673ffffffffffffffffffffffffffffffffffffffff1681526020019081526020016000206000828254019250508190555050565b60016020528060005260406000206000915090505481565b346000803373ffffffffffffffffffffffffffffffffffffffff1673ffffffffffffffffffffffffffffffffffffffff1681526020019081526020016000206000828254019250508190555062093a804201600160003373ffffffffffffffffffffffffffffffffffffffff1673ffffffffffffffffffffffffffffffffffffffff1681526020019081526020016000208190555056fea264697066735822122070eee4a41de2c901e46b62c91961e58c02104598e59ddd1d2098dc5761c57e3564736f6c63430007050033",
  "immutableReferences": {},
  "source": "pragma solidity 0.7.5; \n\nimport {SafeMath} from \"./SafeMath.sol\";\n\n\n\ncontract TimeLockOverFlow {\n   \n    mapping(address => uint) public balances; \n    mapping(address => uint) public lockTime;\n\n    function deposit() public payable {\n        balances[msg.sender] += msg.value;\n        //\n        lockTime[msg.sender] = block.timestamp + 1 weeks;\n    }\n\n    function increaseLockTime(uint _secondsToIncrease) public {\n        /* \n          vulnerability alert! \n          Attacker can determine the current time and call this function \n          with a value for _secondsToIncrease equal 2 ^ 256 \n          causing an overflow in the users locktTime resetting it to 0\n          then call withdraw to withdraw the money \n        */\n        lockTime[msg.sender] += _secondsToIncrease;\n    }\n}\n\ncontract TokenBalanceUnderFlow {\n    using SafeMath for uint;\n    mapping(address => uint) balances;\n    uint public totalSupply; \n\n    constructor(uint _intialSupply) {\n      totalSupply = _intialSupply;\n       balances[msg.sender] = _intialSupply;\n    }\n\n    /**\n      Vulnerability ALERT!!\n      The require statement can be bypassed by using an underflow \n      A user with 0 balance can call the function with a _value greater than 0 \n      the subtraction with underflow and result in a value greater than 0 bypassing the require statemet\n      (balance is a uint256 and value is 0)\n     */\n    function transfer(address _to, uint _value) public returns (bool) {\n        require(balances[msg.sender] - _value >= 0);\n        balances[msg.sender] -= _value;\n        balances[_to] += _value;\n        return true;\n    }\n\n    function balancesOf(address _owner) public view returns(uint balance) {\n        return balances[_owner];\n    }\n}",
  "sourcePath": "/Users/yusuf/Documents/Developer/workspaces/ethereum-projects/mastering-ethereum/reentrancy/contracts/ArithmeticOverAndUnderFlows.sol",
  "compiler": {
    "name": "solc",
    "version": "0.7.5+commit.eb77ed08.Emscripten.clang"
  },
  "schemaVersion": "3.3.2",
  "updatedAt": "2021-02-21T12:50:28.270Z",
  "devdoc": {
    "kind": "dev",
    "methods": {},
    "version": 1
  },
  "userdoc": {
    "kind": "user",
    "methods": {},
    "version": 1
  }
}