{
  "contractName": "TokenBalanceUnderFlow",
  "abi": [
    {
      "inputs": [
        {
          "internalType": "uint256",
          "name": "_intialSupply",
          "type": "uint256"
        }
      ],
      "stateMutability": "nonpayable",
      "type": "constructor"
    },
    {
      "inputs": [],
      "name": "totalSupply",
      "outputs": [
        {
          "internalType": "uint256",
          "name": "",
          "type": "uint256"
        }
      ],
      "stateMutability": "view",
      "type": "function"
    },
    {
      "inputs": [
        {
          "internalType": "address",
          "name": "_to",
          "type": "address"
        },
        {
          "internalType": "uint256",
          "name": "_value",
          "type": "uint256"
        }
      ],
      "name": "transfer",
      "outputs": [
        {
          "internalType": "bool",
          "name": "",
          "type": "bool"
        }
      ],
      "stateMutability": "nonpayable",
      "type": "function"
    },
    {
      "inputs": [
        {
          "internalType": "address",
          "name": "_owner",
          "type": "address"
        }
      ],
      "name": "balancesOf",
      "outputs": [
        {
          "internalType": "uint256",
          "name": "balance",
          "type": "uint256"
        }
      ],
      "stateMutability": "view",
      "type": "function"
    }
  ],
  "bytecode": "0x608060405234801561001057600080fd5b506040516103333803806103338339818101604052602081101561003357600080fd5b810190808051906020019092919050505080600181905550806000803373ffffffffffffffffffffffffffffffffffffffff1673ffffffffffffffffffffffffffffffffffffffff16815260200190815260200160002081905550506102958061009e6000396000f3fe608060405234801561001057600080fd5b50600436106100415760003560e01c806318160ddd146100465780636392a51f14610064578063a9059cbb146100bc575b600080fd5b61004e610120565b6040518082815260200191505060405180910390f35b6100a66004803603602081101561007a57600080fd5b81019080803573ffffffffffffffffffffffffffffffffffffffff169060200190929190505050610126565b6040518082815260200191505060405180910390f35b610108600480360360408110156100d257600080fd5b81019080803573ffffffffffffffffffffffffffffffffffffffff1690602001909291908035906020019092919050505061016e565b60405180821515815260200191505060405180910390f35b60015481565b60008060008373ffffffffffffffffffffffffffffffffffffffff1673ffffffffffffffffffffffffffffffffffffffff168152602001908152602001600020549050919050565b600080826000803373ffffffffffffffffffffffffffffffffffffffff1673ffffffffffffffffffffffffffffffffffffffff168152602001908152602001600020540310156101bd57600080fd5b816000803373ffffffffffffffffffffffffffffffffffffffff1673ffffffffffffffffffffffffffffffffffffffff16815260200190815260200160002060008282540392505081905550816000808573ffffffffffffffffffffffffffffffffffffffff1673ffffffffffffffffffffffffffffffffffffffff16815260200190815260200160002060008282540192505081905550600190509291505056fea2646970667358221220171ac0bec03c6b953c741d2469507cb1bd981b81fd5f2e6866dd9a27e7b7640464736f6c63430007050033",
  "immutableReferences": {},
  "source": "pragma solidity 0.7.5; \n\nimport {SafeMath} from \"./SafeMath.sol\";\n\n\n\ncontract TimeLockOverFlow {\n   \n    mapping(address => uint) public balances; \n    mapping(address => uint) public lockTime;\n\n    function deposit() public payable {\n        balances[msg.sender] += msg.value;\n        //\n        lockTime[msg.sender] = block.timestamp + 1 weeks;\n    }\n\n    function increaseLockTime(uint _secondsToIncrease) public {\n        /* \n          vulnerability alert! \n          Attacker can determine the current time and call this function \n          with a value for _secondsToIncrease equal 2 ^ 256 \n          causing an overflow in the users locktTime resetting it to 0\n          then call withdraw to withdraw the money \n        */\n        lockTime[msg.sender] += _secondsToIncrease;\n    }\n}\n\ncontract TokenBalanceUnderFlow {\n    using SafeMath for uint;\n    mapping(address => uint) balances;\n    uint public totalSupply; \n\n    constructor(uint _intialSupply) {\n      totalSupply = _intialSupply;\n       balances[msg.sender] = _intialSupply;\n    }\n\n    /**\n      Vulnerability ALERT!!\n      The require statement can be bypassed by using an underflow \n      A user with 0 balance can call the function with a _value greater than 0 \n      the subtraction with underflow and result in a value greater than 0 bypassing the require statemet\n      (balance is a uint256 and value is 0)\n     */\n    function transfer(address _to, uint _value) public returns (bool) {\n        require(balances[msg.sender] - _value >= 0);\n        balances[msg.sender] -= _value;\n        balances[_to] += _value;\n        return true;\n    }\n\n    function balancesOf(address _owner) public view returns(uint balance) {\n        return balances[_owner];\n    }\n}",
  "sourcePath": "/Users/yusuf/Documents/Developer/workspaces/ethereum-projects/mastering-ethereum/reentrancy/contracts/ArithmeticOverAndUnderFlows.sol",
  "compiler": {
    "name": "solc",
    "version": "0.7.5+commit.eb77ed08.Emscripten.clang"
  },
  "schemaVersion": "3.3.2",
  "updatedAt": "2021-02-21T12:50:28.274Z",
  "devdoc": {
    "kind": "dev",
    "methods": {},
    "version": 1
  },
  "userdoc": {
    "kind": "user",
    "methods": {
      "transfer(address,uint256)": {
        "notice": "Vulnerability ALERT!! The require statement can be bypassed by using an underflow  A user with 0 balance can call the function with a _value greater than 0  the subtraction with underflow and result in a value greater than 0 bypassing the require statemet (balance is a uint256 and value is 0)"
      }
    },
    "version": 1
  }
}