{
  "contractName": "VulnerabileEtherGame",
  "abi": [
    {
      "inputs": [],
      "name": "depositedWei",
      "outputs": [
        {
          "internalType": "uint256",
          "name": "",
          "type": "uint256"
        }
      ],
      "stateMutability": "view",
      "type": "function"
    },
    {
      "inputs": [],
      "name": "finalMileStone",
      "outputs": [
        {
          "internalType": "uint256",
          "name": "",
          "type": "uint256"
        }
      ],
      "stateMutability": "view",
      "type": "function"
    },
    {
      "inputs": [],
      "name": "finalReward",
      "outputs": [
        {
          "internalType": "uint256",
          "name": "",
          "type": "uint256"
        }
      ],
      "stateMutability": "view",
      "type": "function"
    },
    {
      "inputs": [],
      "name": "mileStone1Reward",
      "outputs": [
        {
          "internalType": "uint256",
          "name": "",
          "type": "uint256"
        }
      ],
      "stateMutability": "view",
      "type": "function"
    },
    {
      "inputs": [],
      "name": "mileStone2Reward",
      "outputs": [
        {
          "internalType": "uint256",
          "name": "",
          "type": "uint256"
        }
      ],
      "stateMutability": "view",
      "type": "function"
    },
    {
      "inputs": [],
      "name": "payoutMileStone1",
      "outputs": [
        {
          "internalType": "uint256",
          "name": "",
          "type": "uint256"
        }
      ],
      "stateMutability": "view",
      "type": "function"
    },
    {
      "inputs": [],
      "name": "payoutMileStone2",
      "outputs": [
        {
          "internalType": "uint256",
          "name": "",
          "type": "uint256"
        }
      ],
      "stateMutability": "view",
      "type": "function"
    },
    {
      "inputs": [],
      "name": "vulnerablePlay",
      "outputs": [],
      "stateMutability": "payable",
      "type": "function"
    },
    {
      "inputs": [],
      "name": "vulnerableClaimReward",
      "outputs": [],
      "stateMutability": "nonpayable",
      "type": "function"
    },
    {
      "inputs": [],
      "name": "securePlay",
      "outputs": [],
      "stateMutability": "payable",
      "type": "function"
    },
    {
      "inputs": [],
      "name": "secureClaimReward",
      "outputs": [],
      "stateMutability": "nonpayable",
      "type": "function"
    }
  ],
  "bytecode": "0x60806040526729a2241af62c0000600055671bc16d674ec80000600155674563918244f400006002556729a2241af62c0000600355678ac7230489e80000600455674563918244f4000060055534801561005857600080fd5b50610650806100686000396000f3fe60806040526004361061009c5760003560e01c806382d4a75c1161006457806382d4a75c146101645780638c6f37591461018f578063d9d142f3146101ba578063edc75d37146101e5578063fec82426146101ef578063ff436c19146101f95761009c565b806316a1883a146100a15780631c95cfc1146100cc57806333c2a9f8146100f75780636a095b15146101225780636e1d553714610139575b600080fd5b3480156100ad57600080fd5b506100b6610210565b6040518082815260200191505060405180910390f35b3480156100d857600080fd5b506100e1610216565b6040518082815260200191505060405180910390f35b34801561010357600080fd5b5061010c61021c565b6040518082815260200191505060405180910390f35b34801561012e57600080fd5b50610137610222565b005b34801561014557600080fd5b5061014e6102c3565b6040518082815260200191505060405180910390f35b34801561017057600080fd5b506101796102c9565b6040518082815260200191505060405180910390f35b34801561019b57600080fd5b506101a46102cf565b6040518082815260200191505060405180910390f35b3480156101c657600080fd5b506101cf6102d5565b6040518082815260200191505060405180910390f35b6101ed6102db565b005b6101f7610432565b005b34801561020557600080fd5b5061020e610577565b005b60045481565b60025481565b60005481565b600454471461023057600080fd5b6000600760003373ffffffffffffffffffffffffffffffffffffffff1673ffffffffffffffffffffffffffffffffffffffff168152602001908152602001600020541161027c57600080fd5b6000600760003373ffffffffffffffffffffffffffffffffffffffff1673ffffffffffffffffffffffffffffffffffffffff16815260200190815260200160002081905550565b60055481565b60015481565b60035481565b60065481565b6706f05b59d3b2000034146102ef57600080fd5b60003460065401905060045481111561030757600080fd5b60005481141561036557600154600760003373ffffffffffffffffffffffffffffffffffffffff1673ffffffffffffffffffffffffffffffffffffffff1681526020019081526020016000206000828254019250508190555061041f565b6002548114156103c357600354600760003373ffffffffffffffffffffffffffffffffffffffff1673ffffffffffffffffffffffffffffffffffffffff1681526020019081526020016000206000828254019250508190555061041e565b60045481141561041d57600554600760003373ffffffffffffffffffffffffffffffffffffffff1673ffffffffffffffffffffffffffffffffffffffff168152602001908152602001600020600082825401925050819055505b5b5b3460066000828254019250508190555050565b6706f05b59d3b20000341461044657600080fd5b6000344701905060045481111561045c57600080fd5b6000548114156104ba57600154600760003373ffffffffffffffffffffffffffffffffffffffff1673ffffffffffffffffffffffffffffffffffffffff16815260200190815260200160002060008282540192505081905550610574565b60025481141561051857600354600760003373ffffffffffffffffffffffffffffffffffffffff1673ffffffffffffffffffffffffffffffffffffffff16815260200190815260200160002060008282540192505081905550610573565b60045481141561057257600554600760003373ffffffffffffffffffffffffffffffffffffffff1673ffffffffffffffffffffffffffffffffffffffff168152602001908152602001600020600082825401925050819055505b5b5b50565b6004546006541461058757600080fd5b6000600760003373ffffffffffffffffffffffffffffffffffffffff1673ffffffffffffffffffffffffffffffffffffffff16815260200190815260200160002054116105d357600080fd5b6000600760003373ffffffffffffffffffffffffffffffffffffffff1673ffffffffffffffffffffffffffffffffffffffff1681526020019081526020016000208190555056fea2646970667358221220ca1f7787f7fac1ca5526d69867a0c2acd0749e4a2149364761fd92a05c92deed64736f6c63430007050033",
  "immutableReferences": {},
  "source": "pragma solidity 0.7.5;\ncontract VulnerabileEtherGame {\n    uint public payoutMileStone1 = 3 ether;\n    uint public mileStone1Reward = 2 ether;\n    uint public payoutMileStone2 = 5 ether;\n    uint public mileStone2Reward = 3 ether;\n    uint public finalMileStone = 10 ether;\n    uint public finalReward = 5 ether;\n    \n    //for secure checks, use instead of this.balance\n    uint public depositedWei;\n\n\n    mapping(address => uint) redeemableEther;\n\n\n    /**\n      Vulnerability ALERT!\n      The issues come from the poor Use of this.balance in the assignment to currentBalance\n      and in the claimReward function. A mischievous attacker could forcibly send a \n      small amount of ether—say, 0.1 ether—via the selfdestruct (see the ForcingEtherOverFlow.md)\n      function  to prevent any future players from reaching a milestone.\n     */\n    function vulnerablePlay() external payable {\n        require(msg.value == 0.5 ether);\n        uint currentBalance = address(this).balance + msg.value; \n\n        require(currentBalance <= finalMileStone);\n\n        if(currentBalance == payoutMileStone1) {\n            redeemableEther[msg.sender] += mileStone1Reward;\n\n        } else if (currentBalance == payoutMileStone2) {\n               redeemableEther[msg.sender] += mileStone2Reward;\n        }\n         else if (currentBalance == finalMileStone) {\n               redeemableEther[msg.sender] += finalReward;\n        }\n        return;\n    }\n\n    function vulnerableClaimReward() public {\n        require(address(this).balance == finalMileStone);\n        require(redeemableEther[msg.sender] > 0);\n        redeemableEther[msg.sender] = 0;\n       // msg.sender.transfer(transferValue);\n\n    }\n\n      //\n      function securePlay() external payable {\n        require(msg.value == 0.5 ether);\n        //replaced this.balance with depositedWei\n        uint currentBalance = depositedWei + msg.value; \n\n        require(currentBalance <= finalMileStone);\n\n        if(currentBalance == payoutMileStone1) {\n            redeemableEther[msg.sender] += mileStone1Reward;\n\n        } else if (currentBalance == payoutMileStone2) {\n               redeemableEther[msg.sender] += mileStone2Reward;\n        }\n         else if (currentBalance == finalMileStone) {\n               redeemableEther[msg.sender] += finalReward;\n        }\n        //new \n        depositedWei += msg.value;\n        return;\n    }\n\n    function secureClaimReward() public {\n        //replaced this.balance with depositedWei\n        require(depositedWei == finalMileStone);\n        require(redeemableEther[msg.sender] > 0);\n        redeemableEther[msg.sender] = 0;\n       // msg.sender.transfer(transferValue);\n\n    }\n\n\n}",
  "sourcePath": "/Users/yusuf/Documents/Developer/workspaces/ethereum-projects/mastering-ethereum/reentrancy/contracts/ForcingEtherOverFlow.sol",
  "compiler": {
    "name": "solc",
    "version": "0.7.5+commit.eb77ed08.Emscripten.clang"
  },
  "schemaVersion": "3.3.2",
  "updatedAt": "2021-02-21T18:41:54.907Z",
  "devdoc": {
    "kind": "dev",
    "methods": {},
    "version": 1
  },
  "userdoc": {
    "kind": "user",
    "methods": {
      "vulnerablePlay()": {
        "notice": "Vulnerability ALERT! The issues come from the poor Use of this.balance in the assignment to currentBalance and in the claimReward function. A mischievous attacker could forcibly send a  small amount of ether—say, 0.1 ether—via the selfdestruct (see the ForcingEtherOverFlow.md) function  to prevent any future players from reaching a milestone."
      }
    },
    "version": 1
  }
}